{"abi":[{"type":"constructor","inputs":[{"name":"_asset","type":"address","internalType":"address"},{"name":"_aavePool","type":"address","internalType":"address"},{"name":"_vault","type":"address","internalType":"address"}],"stateMutability":"nonpayable"},{"type":"function","name":"aToken","inputs":[],"outputs":[{"name":"","type":"address","internalType":"contract IERC20"}],"stateMutability":"view"},{"type":"function","name":"aavePool","inputs":[],"outputs":[{"name":"","type":"address","internalType":"contract IPool"}],"stateMutability":"view"},{"type":"function","name":"assetToken","inputs":[],"outputs":[{"name":"","type":"address","internalType":"contract IERC20"}],"stateMutability":"view"},{"type":"function","name":"deposit","inputs":[{"name":"amount","type":"uint256","internalType":"uint256"}],"outputs":[],"stateMutability":"nonpayable"},{"type":"function","name":"isActive","inputs":[],"outputs":[{"name":"","type":"bool","internalType":"bool"}],"stateMutability":"pure"},{"type":"function","name":"strategyName","inputs":[],"outputs":[{"name":"","type":"string","internalType":"string"}],"stateMutability":"pure"},{"type":"function","name":"totalAssets","inputs":[],"outputs":[{"name":"","type":"uint256","internalType":"uint256"}],"stateMutability":"view"},{"type":"function","name":"vault","inputs":[],"outputs":[{"name":"","type":"address","internalType":"address"}],"stateMutability":"view"},{"type":"function","name":"withdraw","inputs":[{"name":"amount","type":"uint256","internalType":"uint256"}],"outputs":[],"stateMutability":"nonpayable"},{"type":"error","name":"SafeERC20FailedOperation","inputs":[{"name":"token","type":"address","internalType":"address"}]}],"bytecode":{"object":"0x608060405234801561000f575f80fd5b506040516107e53803806107e583398101604081905261002e91610112565b5f80546001600160a01b03199081166001600160a01b0386811691821790935560018054831686851690811790915560028054909316938516939093179091556040516335ea6a7560e01b815260048101919091526335ea6a75906024016101c060405180830381865afa9250505080156100c6575060408051601f3d908101601f191682019092526100c3918101906101c2565b60015b156100ef5760e00151600380546001600160a01b0319166001600160a01b039092169190911790555b5050506102c9565b80516001600160a01b038116811461010d575f80fd5b919050565b5f805f60608486031215610124575f80fd5b61012d846100f7565b925061013b602085016100f7565b9150610149604085016100f7565b90509250925092565b6040516101c081016001600160401b038111828210171561018157634e487b7160e01b5f52604160045260245ffd5b60405290565b80516001600160801b038116811461010d575f80fd5b805164ffffffffff8116811461010d575f80fd5b805161ffff8116811461010d575f80fd5b5f6101c082840312156101d3575f80fd5b6101db610152565b825181526101eb60208401610187565b60208201526101fc60408401610187565b604082015261020d60608401610187565b606082015261021e60808401610187565b608082015261022f60a0840161019d565b60a082015261024060c084016101b1565b60c082015261025160e084016100f7565b60e08201526101006102648185016100f7565b908201526101206102768482016100f7565b908201526101406102888482016100f7565b9082015261016061029a848201610187565b908201526101806102ac848201610187565b908201526101a06102be848201610187565b908201529392505050565b61050f806102d65f395ff3fe608060405234801561000f575f80fd5b5060043610610090575f3560e01c8063a03e4bc311610063578063a03e4bc3146100fd578063a0c1f15e14610110578063b6b55f2514610123578063e173ad2514610136578063fbfa77cf1461016d575f80fd5b806301e1d114146100945780631083f761146100af57806322f3e2d4146100d95780632e1a7d4d146100e8575b5f80fd5b61009c610180565b6040519081526020015b60405180910390f35b5f546100c1906001600160a01b031681565b6040516001600160a01b0390911681526020016100a6565b604051600181526020016100a6565b6100fb6100f636600461043a565b610207565b005b6001546100c1906001600160a01b031681565b6003546100c1906001600160a01b031681565b6100fb61013136600461043a565b61028b565b604080518082018252601581527441617665204c656e64696e6720537472617465677960581b602082015290516100a69190610451565b6002546100c1906001600160a01b031681565b6003545f906001600160a01b031615610202576003546040516370a0823160e01b81523060048201526001600160a01b03909116906370a0823190602401602060405180830381865afa1580156101d9573d5f803e3d5ffd5b505050506040513d601f19601f820116820180604052508101906101fd919061049c565b905090565b505f90565b6001545f54600254604051631a4ca37b60e21b81526001600160a01b0392831660048201526024810185905290821660448201529116906369328dec906064016020604051808303815f875af1158015610263573d5f803e3d5ffd5b505050506040513d601f19601f82011682018060405250810190610287919061049c565b5050565b5f546102a2906001600160a01b031633308461038d565b5f5460015460405163095ea7b360e01b81526001600160a01b0391821660048201526024810184905291169063095ea7b3906044016020604051808303815f875af11580156102f3573d5f803e3d5ffd5b505050506040513d601f19601f8201168201806040525081019061031791906104b3565b506001545f805460405163617ba03760e01b81526001600160a01b0391821660048201526024810185905230604482015260648101929092529091169063617ba037906084015f604051808303815f87803b158015610374575f80fd5b505af1158015610386573d5f803e3d5ffd5b5050505050565b61039b8484848460016103cd565b6103c757604051635274afe760e01b81526001600160a01b038516600482015260240160405180910390fd5b50505050565b6040516323b872dd60e01b5f8181526001600160a01b038781166004528616602452604485905291602083606481808c5af1925060015f5114831661042957838315161561041d573d5f823e3d81fd5b5f883b113d1516831692505b604052505f60605295945050505050565b5f6020828403121561044a575f80fd5b5035919050565b5f6020808352835180828501525f5b8181101561047c57858101830151858201604001528201610460565b505f604082860101526040601f19601f8301168501019250505092915050565b5f602082840312156104ac575f80fd5b5051919050565b5f602082840312156104c3575f80fd5b815180151581146104d2575f80fd5b939250505056fea2646970667358221220153b2430cc1b3187d486d8b8bc185ab47db5e0385d5cfa0d86b84b86cb93324464736f6c63430008140033","linkReferences":{}},"methodIdentifiers":{"aToken()":"a0c1f15e","aavePool()":"a03e4bc3","assetToken()":"1083f761","deposit(uint256)":"b6b55f25","isActive()":"22f3e2d4","strategyName()":"e173ad25","totalAssets()":"01e1d114","vault()":"fbfa77cf","withdraw(uint256)":"2e1a7d4d"},"id":40}