{"abi":[{"type":"constructor","inputs":[{"name":"_asset","type":"address","internalType":"address"},{"name":"_name","type":"string","internalType":"string"},{"name":"_symbol","type":"string","internalType":"string"},{"name":"_admin","type":"address","internalType":"address"}],"stateMutability":"nonpayable"},{"type":"function","name":"ADMIN_ROLE","inputs":[],"outputs":[{"name":"","type":"bytes32","internalType":"bytes32"}],"stateMutability":"view"},{"type":"function","name":"DEFAULT_ADMIN_ROLE","inputs":[],"outputs":[{"name":"","type":"bytes32","internalType":"bytes32"}],"stateMutability":"view"},{"type":"function","name":"STRATEGIST_ROLE","inputs":[],"outputs":[{"name":"","type":"bytes32","internalType":"bytes32"}],"stateMutability":"view"},{"type":"function","name":"aiExecutor","inputs":[],"outputs":[{"name":"","type":"address","internalType":"address"}],"stateMutability":"view"},{"type":"function","name":"allowance","inputs":[{"name":"owner","type":"address","internalType":"address"},{"name":"spender","type":"address","internalType":"address"}],"outputs":[{"name":"","type":"uint256","internalType":"uint256"}],"stateMutability":"view"},{"type":"function","name":"approve","inputs":[{"name":"spender","type":"address","internalType":"address"},{"name":"value","type":"uint256","internalType":"uint256"}],"outputs":[{"name":"","type":"bool","internalType":"bool"}],"stateMutability":"nonpayable"},{"type":"function","name":"asset","inputs":[],"outputs":[{"name":"","type":"address","internalType":"address"}],"stateMutability":"view"},{"type":"function","name":"assetToken","inputs":[],"outputs":[{"name":"","type":"address","internalType":"contract IERC20"}],"stateMutability":"view"},{"type":"function","name":"balanceOf","inputs":[{"name":"account","type":"address","internalType":"address"}],"outputs":[{"name":"","type":"uint256","internalType":"uint256"}],"stateMutability":"view"},{"type":"function","name":"convertToAssets","inputs":[{"name":"shares","type":"uint256","internalType":"uint256"}],"outputs":[{"name":"","type":"uint256","internalType":"uint256"}],"stateMutability":"view"},{"type":"function","name":"convertToShares","inputs":[{"name":"assets","type":"uint256","internalType":"uint256"}],"outputs":[{"name":"","type":"uint256","internalType":"uint256"}],"stateMutability":"view"},{"type":"function","name":"decimals","inputs":[],"outputs":[{"name":"","type":"uint8","internalType":"uint8"}],"stateMutability":"view"},{"type":"function","name":"deposit","inputs":[{"name":"assets","type":"uint256","internalType":"uint256"},{"name":"receiver","type":"address","internalType":"address"}],"outputs":[{"name":"shares","type":"uint256","internalType":"uint256"}],"stateMutability":"nonpayable"},{"type":"function","name":"getRoleAdmin","inputs":[{"name":"role","type":"bytes32","internalType":"bytes32"}],"outputs":[{"name":"","type":"bytes32","internalType":"bytes32"}],"stateMutability":"view"},{"type":"function","name":"grantRole","inputs":[{"name":"role","type":"bytes32","internalType":"bytes32"},{"name":"account","type":"address","internalType":"address"}],"outputs":[],"stateMutability":"nonpayable"},{"type":"function","name":"hasRole","inputs":[{"name":"role","type":"bytes32","internalType":"bytes32"},{"name":"account","type":"address","internalType":"address"}],"outputs":[{"name":"","type":"bool","internalType":"bool"}],"stateMutability":"view"},{"type":"function","name":"name","inputs":[],"outputs":[{"name":"","type":"string","internalType":"string"}],"stateMutability":"view"},{"type":"function","name":"pause","inputs":[],"outputs":[],"stateMutability":"nonpayable"},{"type":"function","name":"paused","inputs":[],"outputs":[{"name":"","type":"bool","internalType":"bool"}],"stateMutability":"view"},{"type":"function","name":"pullFunds","inputs":[{"name":"amount","type":"uint256","internalType":"uint256"}],"outputs":[],"stateMutability":"nonpayable"},{"type":"function","name":"pushFunds","inputs":[{"name":"amount","type":"uint256","internalType":"uint256"}],"outputs":[],"stateMutability":"nonpayable"},{"type":"function","name":"renounceRole","inputs":[{"name":"role","type":"bytes32","internalType":"bytes32"},{"name":"callerConfirmation","type":"address","internalType":"address"}],"outputs":[],"stateMutability":"nonpayable"},{"type":"function","name":"revokeRole","inputs":[{"name":"role","type":"bytes32","internalType":"bytes32"},{"name":"account","type":"address","internalType":"address"}],"outputs":[],"stateMutability":"nonpayable"},{"type":"function","name":"setAIExecutor","inputs":[{"name":"_aiExecutor","type":"address","internalType":"address"}],"outputs":[],"stateMutability":"nonpayable"},{"type":"function","name":"setStrategyManager","inputs":[{"name":"_strategyManager","type":"address","internalType":"address"}],"outputs":[],"stateMutability":"nonpayable"},{"type":"function","name":"strategyManager","inputs":[],"outputs":[{"name":"","type":"address","internalType":"address"}],"stateMutability":"view"},{"type":"function","name":"supportsInterface","inputs":[{"name":"interfaceId","type":"bytes4","internalType":"bytes4"}],"outputs":[{"name":"","type":"bool","internalType":"bool"}],"stateMutability":"view"},{"type":"function","name":"symbol","inputs":[],"outputs":[{"name":"","type":"string","internalType":"string"}],"stateMutability":"view"},{"type":"function","name":"totalAssets","inputs":[],"outputs":[{"name":"","type":"uint256","internalType":"uint256"}],"stateMutability":"view"},{"type":"function","name":"totalSupply","inputs":[],"outputs":[{"name":"","type":"uint256","internalType":"uint256"}],"stateMutability":"view"},{"type":"function","name":"transfer","inputs":[{"name":"to","type":"address","internalType":"address"},{"name":"value","type":"uint256","internalType":"uint256"}],"outputs":[{"name":"","type":"bool","internalType":"bool"}],"stateMutability":"nonpayable"},{"type":"function","name":"transferFrom","inputs":[{"name":"from","type":"address","internalType":"address"},{"name":"to","type":"address","internalType":"address"},{"name":"value","type":"uint256","internalType":"uint256"}],"outputs":[{"name":"","type":"bool","internalType":"bool"}],"stateMutability":"nonpayable"},{"type":"function","name":"unpause","inputs":[],"outputs":[],"stateMutability":"nonpayable"},{"type":"function","name":"withdraw","inputs":[{"name":"shares","type":"uint256","internalType":"uint256"},{"name":"receiver","type":"address","internalType":"address"},{"name":"owner","type":"address","internalType":"address"}],"outputs":[{"name":"assets","type":"uint256","internalType":"uint256"}],"stateMutability":"nonpayable"},{"type":"event","name":"AIExecutorUpdated","inputs":[{"name":"newExecutor","type":"address","indexed":true,"internalType":"address"}],"anonymous":false},{"type":"event","name":"Approval","inputs":[{"name":"owner","type":"address","indexed":true,"internalType":"address"},{"name":"spender","type":"address","indexed":true,"internalType":"address"},{"name":"value","type":"uint256","indexed":false,"internalType":"uint256"}],"anonymous":false},{"type":"event","name":"Deposited","inputs":[{"name":"user","type":"address","indexed":true,"internalType":"address"},{"name":"assets","type":"uint256","indexed":false,"internalType":"uint256"},{"name":"shares","type":"uint256","indexed":false,"internalType":"uint256"}],"anonymous":false},{"type":"event","name":"Paused","inputs":[{"name":"account","type":"address","indexed":false,"internalType":"address"}],"anonymous":false},{"type":"event","name":"RoleAdminChanged","inputs":[{"name":"role","type":"bytes32","indexed":true,"internalType":"bytes32"},{"name":"previousAdminRole","type":"bytes32","indexed":true,"internalType":"bytes32"},{"name":"newAdminRole","type":"bytes32","indexed":true,"internalType":"bytes32"}],"anonymous":false},{"type":"event","name":"RoleGranted","inputs":[{"name":"role","type":"bytes32","indexed":true,"internalType":"bytes32"},{"name":"account","type":"address","indexed":true,"internalType":"address"},{"name":"sender","type":"address","indexed":true,"internalType":"address"}],"anonymous":false},{"type":"event","name":"RoleRevoked","inputs":[{"name":"role","type":"bytes32","indexed":true,"internalType":"bytes32"},{"name":"account","type":"address","indexed":true,"internalType":"address"},{"name":"sender","type":"address","indexed":true,"internalType":"address"}],"anonymous":false},{"type":"event","name":"StrategyManagerUpdated","inputs":[{"name":"newManager","type":"address","indexed":true,"internalType":"address"}],"anonymous":false},{"type":"event","name":"Transfer","inputs":[{"name":"from","type":"address","indexed":true,"internalType":"address"},{"name":"to","type":"address","indexed":true,"internalType":"address"},{"name":"value","type":"uint256","indexed":false,"internalType":"uint256"}],"anonymous":false},{"type":"event","name":"Unpaused","inputs":[{"name":"account","type":"address","indexed":false,"internalType":"address"}],"anonymous":false},{"type":"event","name":"Withdrawn","inputs":[{"name":"user","type":"address","indexed":true,"internalType":"address"},{"name":"assets","type":"uint256","indexed":false,"internalType":"uint256"},{"name":"shares","type":"uint256","indexed":false,"internalType":"uint256"}],"anonymous":false},{"type":"error","name":"AccessControlBadConfirmation","inputs":[]},{"type":"error","name":"AccessControlUnauthorizedAccount","inputs":[{"name":"account","type":"address","internalType":"address"},{"name":"neededRole","type":"bytes32","internalType":"bytes32"}]},{"type":"error","name":"ERC20InsufficientAllowance","inputs":[{"name":"spender","type":"address","internalType":"address"},{"name":"allowance","type":"uint256","internalType":"uint256"},{"name":"needed","type":"uint256","internalType":"uint256"}]},{"type":"error","name":"ERC20InsufficientBalance","inputs":[{"name":"sender","type":"address","internalType":"address"},{"name":"balance","type":"uint256","internalType":"uint256"},{"name":"needed","type":"uint256","internalType":"uint256"}]},{"type":"error","name":"ERC20InvalidApprover","inputs":[{"name":"approver","type":"address","internalType":"address"}]},{"type":"error","name":"ERC20InvalidReceiver","inputs":[{"name":"receiver","type":"address","internalType":"address"}]},{"type":"error","name":"ERC20InvalidSender","inputs":[{"name":"sender","type":"address","internalType":"address"}]},{"type":"error","name":"ERC20InvalidSpender","inputs":[{"name":"spender","type":"address","internalType":"address"}]},{"type":"error","name":"EnforcedPause","inputs":[]},{"type":"error","name":"ExpectedPause","inputs":[]},{"type":"error","name":"ReentrancyGuardReentrantCall","inputs":[]},{"type":"error","name":"SafeERC20FailedOperation","inputs":[{"name":"token","type":"address","internalType":"address"}]}],"bytecode":{"object":"0x60a060405234801562000010575f80fd5b5060405162001cc838038062001cc883398101604081905262000033916200026e565b8282600362000043838262000385565b50600462000052828262000385565b50505060016200006e6200006b620000c060201b60201c565b90565b556001600160a01b038416608052620000885f82620000e4565b50620000b57fa49807205ce4d355092ef5a8a18f56e8913cf4a201fbe287825b095693c2177582620000e4565b50505050506200044d565b7f9b779b17422d0df92223018b32b4d1fa46e071723d6817e2486d003becc55f0090565b5f8281526006602090815260408083206001600160a01b038516845290915281205460ff166200018b575f8381526006602090815260408083206001600160a01b03861684529091529020805460ff19166001179055620001423390565b6001600160a01b0316826001600160a01b0316847f2f8788117e7eff1d82e926ec794901d17c78024a50270940304540a733656f0d60405160405180910390a45060016200018e565b505f5b92915050565b80516001600160a01b0381168114620001ab575f80fd5b919050565b634e487b7160e01b5f52604160045260245ffd5b5f82601f830112620001d4575f80fd5b81516001600160401b0380821115620001f157620001f1620001b0565b604051601f8301601f19908116603f011681019082821181831017156200021c576200021c620001b0565b8160405283815260209250868385880101111562000238575f80fd5b5f91505b838210156200025b57858201830151818301840152908201906200023c565b5f93810190920192909252949350505050565b5f805f806080858703121562000282575f80fd5b6200028d8562000194565b60208601519094506001600160401b0380821115620002aa575f80fd5b620002b888838901620001c4565b94506040870151915080821115620002ce575f80fd5b50620002dd87828801620001c4565b925050620002ee6060860162000194565b905092959194509250565b600181811c908216806200030e57607f821691505b6020821081036200032d57634e487b7160e01b5f52602260045260245ffd5b50919050565b601f82111562000380575f81815260208120601f850160051c810160208610156200035b5750805b601f850160051c820191505b818110156200037c5782815560010162000367565b5050505b505050565b81516001600160401b03811115620003a157620003a1620001b0565b620003b981620003b28454620002f9565b8462000333565b602080601f831160018114620003ef575f8415620003d75750858301515b5f19600386901b1c1916600185901b1785556200037c565b5f85815260208120601f198616915b828110156200041f57888601518255948401946001909101908401620003fe565b50858210156200043d57878501515f19600388901b60f8161c191681555b5050505050600190811b01905550565b60805161182a6200049e5f395f81816102aa015281816103420152818161050a015281816109ae01528181610a3e01528181610b6a01528181610c7001528181610d450152610e2b015261182a5ff3fe608060405234801561000f575f80fd5b50600436106101fd575f3560e01c80635c9666461161011457806395d89b41116100a9578063b460af9411610079578063b460af9414610465578063c6e6f59214610478578063d547741f1461048b578063dd62ed3e1461049e578063ec8d8777146104d6575f80fd5b806395d89b411461042f578063a217fddf14610437578063a378a3241461043e578063a9059cbb14610452575f80fd5b806375b238fc116100e457806375b238fc146103ed5780637b36f157146104015780638456cb591461041457806391d148541461041c575f80fd5b80635c966646146103945780635c975abb146103a75780636e553f65146103b257806370a08231146103c5575f80fd5b806323b872dd1161019557806336568abe1161016557806336568abe1461032d57806338d52e0f1461034057806339b70e38146103665780633f4ba83a146103795780633f943ce814610381575f80fd5b806323b872dd146102d4578063248a9ca3146102e75780632f2ff15d14610309578063313ce5671461031e575f80fd5b806308385562116101d05780630838556214610267578063095ea7b3146102925780631083f761146102a557806318160ddd146102cc575f80fd5b806301e1d1141461020157806301ffc9a71461021c57806306fdde031461023f57806307a2d13a14610254575b5f80fd5b6102096104e9565b6040519081526020015b60405180910390f35b61022f61022a366004611531565b61060d565b6040519015158152602001610213565b610247610643565b6040516102139190611558565b6102096102623660046115a3565b6106d3565b60085461027a906001600160a01b031681565b6040516001600160a01b039091168152602001610213565b61022f6102a03660046115d0565b610711565b61027a7f000000000000000000000000000000000000000000000000000000000000000081565b600254610209565b61022f6102e23660046115f8565b610728565b6102096102f53660046115a3565b5f9081526006602052604090206001015490565b61031c610317366004611631565b61074b565b005b60405160128152602001610213565b61031c61033b366004611631565b610775565b7f000000000000000000000000000000000000000000000000000000000000000061027a565b60075461027a906001600160a01b031681565b61031c6107ad565b61031c61038f36600461165b565b6107cf565b61031c6103a236600461165b565b610850565b60055460ff1661022f565b6102096103c0366004611631565b6108d1565b6102096103d336600461165b565b6001600160a01b03165f9081526020819052604090205490565b6102095f805160206117d583398151915281565b61031c61040f3660046115a3565b610a31565b61031c610a66565b61022f61042a366004611631565b610a85565b610247610aaf565b6102095f81565b6102095f8051602061179583398151915281565b61022f6104603660046115d0565b610abe565b610209610473366004611674565b610acb565b6102096104863660046115a3565b610dbe565b61031c610499366004611631565b610de3565b6102096104ac3660046116ad565b6001600160a01b039182165f90815260016020908152604080832093909416825291909152205490565b61031c6104e43660046115a3565b610e07565b6040516370a0823160e01b81523060048201525f9081906001600160a01b037f000000000000000000000000000000000000000000000000000000000000000016906370a0823190602401602060405180830381865afa15801561054f573d5f803e3d5ffd5b505050506040513d601f19601f8201168201806040525081019061057391906116d5565b6007549091506001600160a01b0316156106085760075f9054906101000a90046001600160a01b03166001600160a01b03166301e1d1146040518163ffffffff1660e01b8152600401602060405180830381865afa1580156105d7573d5f803e3d5ffd5b505050506040513d601f19601f820116820180604052508101906105fb91906116d5565b6106059082611700565b90505b919050565b5f6001600160e01b03198216637965db0b60e01b148061063d57506301ffc9a760e01b6001600160e01b03198316145b92915050565b60606003805461065290611713565b80601f016020809104026020016040519081016040528092919081815260200182805461067e90611713565b80156106c95780601f106106a0576101008083540402835291602001916106c9565b820191905f5260205f20905b8154815290600101906020018083116106ac57829003601f168201915b5050505050905090565b5f806106de60025490565b9050801561070857806106ef6104e9565b6106f9908561174b565b6107039190611762565b61070a565b825b9392505050565b5f3361071e818585610e56565b5060019392505050565b5f33610735858285610e63565b610740858585610ed9565b506001949350505050565b5f8281526006602052604090206001015461076581610f36565b61076f8383610f40565b50505050565b6001600160a01b038116331461079e5760405163334bd91960e11b815260040160405180910390fd5b6107a88282610fd1565b505050565b5f805160206117d58339815191526107c481610f36565b6107cc61103c565b50565b5f805160206117d58339815191526107e681610f36565b600880546001600160a01b0319166001600160a01b0384161790556108185f8051602061179583398151915283610f40565b506040516001600160a01b038316907fcbed3bdd07d33a8b5490518f1c6ba96615e67509cce9cffa9e8eba455d8bdd3e905f90a25050565b5f805160206117d583398151915261086781610f36565b600780546001600160a01b0319166001600160a01b0384161790556108995f8051602061179583398151915283610f40565b506040516001600160a01b038316907f95169e42c0fcf2c96d94d59478e3c0a6c9364a02a2821ab833b915d90a51784b905f90a25050565b5f6108da61108e565b6108e26110a9565b5f83116109475760405162461bcd60e51b815260206004820152602860248201527f4465706f73697420616d6f756e74206d7573742062652067726561746572207460448201526768616e207a65726f60c01b60648201526084015b60405180910390fd5b61095083610dbe565b90505f81116109a15760405162461bcd60e51b815260206004820181905260248201527f536861726573206d7573742062652067726561746572207468616e207a65726f604482015260640161093e565b6109d66001600160a01b037f0000000000000000000000000000000000000000000000000000000000000000163330866110cf565b6109e08282611105565b604080518481526020810183905233917f73a19dd210f1a7f902193214c0ee91dd35ee5b4d920cba8d519eca65a7b488ca910160405180910390a261063d60015f805160206117b583398151915255565b6107cc6001600160a01b037f0000000000000000000000000000000000000000000000000000000000000000163330846110cf565b5f805160206117d5833981519152610a7d81610f36565b6107cc611139565b5f9182526006602090815260408084206001600160a01b0393909316845291905290205460ff1690565b60606004805461065290611713565b5f3361071e818585610ed9565b5f610ad461108e565b5f8411610b235760405162461bcd60e51b815260206004820181905260248201527f536861726573206d7573742062652067726561746572207468616e207a65726f604482015260640161093e565b336001600160a01b03831614610b3e57610b3e823386610e63565b610b47846106d3565b9050610b538285611176565b6040516370a0823160e01b81523060048201525f907f00000000000000000000000000000000000000000000000000000000000000006001600160a01b0316906370a0823190602401602060405180830381865afa158015610bb7573d5f803e3d5ffd5b505050506040513d601f19601f82011682018060405250810190610bdb91906116d5565b905081811015610d38575f610bf08284611781565b6007549091506001600160a01b031615610ce657600754604051632e1a7d4d60e01b8152600481018390526001600160a01b0390911690632e1a7d4d906024015f604051808303815f87803b158015610c47575f80fd5b505af1158015610c59573d5f803e3d5ffd5b50506040516370a0823160e01b81523060048201527f00000000000000000000000000000000000000000000000000000000000000006001600160a01b031692506370a082319150602401602060405180830381865afa158015610cbf573d5f803e3d5ffd5b505050506040513d601f19601f82011682018060405250810190610ce391906116d5565b91505b82821015610d365760405162461bcd60e51b815260206004820152601a60248201527f496e73756666696369656e74206c697175696420617373657473000000000000604482015260640161093e565b505b610d6c6001600160a01b037f00000000000000000000000000000000000000000000000000000000000000001685846111aa565b604080518381526020810187905233917f92ccf450a286a957af52509bc1c9939d1a6a481783e142e41e2499f0bb66ebc6910160405180910390a25061070a60015f805160206117b583398151915255565b5f80610dc960025490565b9050801561070857610dd96104e9565b6106f9828561174b565b5f82815260066020526040902060010154610dfd81610f36565b61076f8383610fd1565b5f80516020611795833981519152610e1e81610f36565b610e526001600160a01b037f00000000000000000000000000000000000000000000000000000000000000001633846111aa565b5050565b6107a883838360016111df565b6001600160a01b038381165f908152600160209081526040808320938616835292905220545f1981101561076f5781811015610ecb57604051637dc7a0d960e11b81526001600160a01b0384166004820152602481018290526044810183905260640161093e565b61076f84848484035f6111df565b6001600160a01b038316610f0257604051634b637e8f60e11b81525f600482015260240161093e565b6001600160a01b038216610f2b5760405163ec442f0560e01b81525f600482015260240161093e565b6107a88383836112b1565b6107cc81336113d7565b5f610f4b8383610a85565b610fca575f8381526006602090815260408083206001600160a01b03861684529091529020805460ff19166001179055610f823390565b6001600160a01b0316826001600160a01b0316847f2f8788117e7eff1d82e926ec794901d17c78024a50270940304540a733656f0d60405160405180910390a450600161063d565b505f61063d565b5f610fdc8383610a85565b15610fca575f8381526006602090815260408083206001600160a01b0386168085529252808320805460ff1916905551339286917ff6391f5c32d9c69d2a47ea670b442974b53935d1edc7fd64eb21e047a839171b9190a450600161063d565b611044611410565b6005805460ff191690557f5db9ee0a495bf2e6ff9c91a7834c1ba4fdd244a5e8aa4e537bd38aeae4b073aa335b6040516001600160a01b03909116815260200160405180910390a1565b611096611433565b60025f805160206117b583398151915255565b60055460ff16156110cd5760405163d93c066560e01b815260040160405180910390fd5b565b6110dd848484846001611462565b61076f57604051635274afe760e01b81526001600160a01b038516600482015260240161093e565b6001600160a01b03821661112e5760405163ec442f0560e01b81525f600482015260240161093e565b610e525f83836112b1565b6111416110a9565b6005805460ff191660011790557f62e78cea01bee320cd4e420270b5ea74000d11b0c9f74754ebdbfc544b05a2586110713390565b6001600160a01b03821661119f57604051634b637e8f60e11b81525f600482015260240161093e565b610e52825f836112b1565b6111b783838360016114cf565b6107a857604051635274afe760e01b81526001600160a01b038416600482015260240161093e565b6001600160a01b0384166112085760405163e602df0560e01b81525f600482015260240161093e565b6001600160a01b03831661123157604051634a1406b160e11b81525f600482015260240161093e565b6001600160a01b038085165f908152600160209081526040808320938716835292905220829055801561076f57826001600160a01b0316846001600160a01b03167f8c5be1e5ebec7d5bd14f71427d1e84f3dd0314c0f7b2291e5b200ac8c7c3b925846040516112a391815260200190565b60405180910390a350505050565b6001600160a01b0383166112db578060025f8282546112d09190611700565b9091555061134b9050565b6001600160a01b0383165f908152602081905260409020548181101561132d5760405163391434e360e21b81526001600160a01b0385166004820152602481018290526044810183905260640161093e565b6001600160a01b0384165f9081526020819052604090209082900390555b6001600160a01b03821661136757600280548290039055611385565b6001600160a01b0382165f9081526020819052604090208054820190555b816001600160a01b0316836001600160a01b03167fddf252ad1be2c89b69c2b068fc378daa952ba7f163c4a11628f55a4df523b3ef836040516113ca91815260200190565b60405180910390a3505050565b6113e18282610a85565b610e525760405163e2517d3f60e01b81526001600160a01b03821660048201526024810183905260440161093e565b60055460ff166110cd57604051638dfc202b60e01b815260040160405180910390fd5b5f805160206117b5833981519152546002036110cd57604051633ee5aeb560e01b815260040160405180910390fd5b6040516323b872dd60e01b5f8181526001600160a01b038781166004528616602452604485905291602083606481808c5af1925060015f511483166114be5783831516156114b2573d5f823e3d81fd5b5f883b113d1516831692505b604052505f60605295945050505050565b60405163a9059cbb60e01b5f8181526001600160a01b038616600452602485905291602083604481808b5af1925060015f51148316611525578383151615611519573d5f823e3d81fd5b5f873b113d1516831692505b60405250949350505050565b5f60208284031215611541575f80fd5b81356001600160e01b03198116811461070a575f80fd5b5f6020808352835180828501525f5b8181101561158357858101830151858201604001528201611567565b505f604082860101526040601f19601f8301168501019250505092915050565b5f602082840312156115b3575f80fd5b5035919050565b80356001600160a01b0381168114610608575f80fd5b5f80604083850312156115e1575f80fd5b6115ea836115ba565b946020939093013593505050565b5f805f6060848603121561160a575f80fd5b611613846115ba565b9250611621602085016115ba565b9150604084013590509250925092565b5f8060408385031215611642575f80fd5b82359150611652602084016115ba565b90509250929050565b5f6020828403121561166b575f80fd5b61070a826115ba565b5f805f60608486031215611686575f80fd5b83359250611696602085016115ba565b91506116a4604085016115ba565b90509250925092565b5f80604083850312156116be575f80fd5b6116c7836115ba565b9150611652602084016115ba565b5f602082840312156116e5575f80fd5b5051919050565b634e487b7160e01b5f52601160045260245ffd5b8082018082111561063d5761063d6116ec565b600181811c9082168061172757607f821691505b60208210810361174557634e487b7160e01b5f52602260045260245ffd5b50919050565b808202811582820484141761063d5761063d6116ec565b5f8261177c57634e487b7160e01b5f52601260045260245ffd5b500490565b8181038181111561063d5761063d6116ec56fe17a8e30262c1f919c33056d877a3c22b95c2f5e4dac44683c1c2323cd79fbdb09b779b17422d0df92223018b32b4d1fa46e071723d6817e2486d003becc55f00a49807205ce4d355092ef5a8a18f56e8913cf4a201fbe287825b095693c21775a2646970667358221220f20b93a2a20d4e2d653b6dc5ff6e1c8ead37594c9ed86abb96caed8bf5bf302a64736f6c63430008140033","linkReferences":{}},"methodIdentifiers":{"ADMIN_ROLE()":"75b238fc","DEFAULT_ADMIN_ROLE()":"a217fddf","STRATEGIST_ROLE()":"a378a324","aiExecutor()":"08385562","allowance(address,address)":"dd62ed3e","approve(address,uint256)":"095ea7b3","asset()":"38d52e0f","assetToken()":"1083f761","balanceOf(address)":"70a08231","convertToAssets(uint256)":"07a2d13a","convertToShares(uint256)":"c6e6f592","decimals()":"313ce567","deposit(uint256,address)":"6e553f65","getRoleAdmin(bytes32)":"248a9ca3","grantRole(bytes32,address)":"2f2ff15d","hasRole(bytes32,address)":"91d14854","name()":"06fdde03","pause()":"8456cb59","paused()":"5c975abb","pullFunds(uint256)":"ec8d8777","pushFunds(uint256)":"7b36f157","renounceRole(bytes32,address)":"36568abe","revokeRole(bytes32,address)":"d547741f","setAIExecutor(address)":"3f943ce8","setStrategyManager(address)":"5c966646","strategyManager()":"39b70e38","supportsInterface(bytes4)":"01ffc9a7","symbol()":"95d89b41","totalAssets()":"01e1d114","totalSupply()":"18160ddd","transfer(address,uint256)":"a9059cbb","transferFrom(address,address,uint256)":"23b872dd","unpause()":"3f4ba83a","withdraw(uint256,address,address)":"b460af94"},"id":35}