{"abi":[{"type":"constructor","inputs":[{"name":"_asset","type":"address","internalType":"address"},{"name":"_vault","type":"address","internalType":"address"},{"name":"_admin","type":"address","internalType":"address"},{"name":"_name","type":"string","internalType":"string"},{"name":"_ipfsMetadata","type":"string","internalType":"string"},{"name":"_yieldRateBps","type":"uint256","internalType":"uint256"},{"name":"_loanDuration","type":"uint256","internalType":"uint256"}],"stateMutability":"nonpayable"},{"type":"function","name":"ADMIN_ROLE","inputs":[],"outputs":[{"name":"","type":"bytes32","internalType":"bytes32"}],"stateMutability":"view"},{"type":"function","name":"DEFAULT_ADMIN_ROLE","inputs":[],"outputs":[{"name":"","type":"bytes32","internalType":"bytes32"}],"stateMutability":"view"},{"type":"function","name":"ISSUER_ROLE","inputs":[],"outputs":[{"name":"","type":"bytes32","internalType":"bytes32"}],"stateMutability":"view"},{"type":"function","name":"assetToken","inputs":[],"outputs":[{"name":"","type":"address","internalType":"contract IERC20"}],"stateMutability":"view"},{"type":"function","name":"borrow","inputs":[{"name":"amount","type":"uint256","internalType":"uint256"}],"outputs":[],"stateMutability":"nonpayable"},{"type":"function","name":"deposit","inputs":[{"name":"amount","type":"uint256","internalType":"uint256"}],"outputs":[],"stateMutability":"nonpayable"},{"type":"function","name":"getRoleAdmin","inputs":[{"name":"role","type":"bytes32","internalType":"bytes32"}],"outputs":[{"name":"","type":"bytes32","internalType":"bytes32"}],"stateMutability":"view"},{"type":"function","name":"grantRole","inputs":[{"name":"role","type":"bytes32","internalType":"bytes32"},{"name":"account","type":"address","internalType":"address"}],"outputs":[],"stateMutability":"nonpayable"},{"type":"function","name":"hasRole","inputs":[{"name":"role","type":"bytes32","internalType":"bytes32"},{"name":"account","type":"address","internalType":"address"}],"outputs":[{"name":"","type":"bool","internalType":"bool"}],"stateMutability":"view"},{"type":"function","name":"ipfsMetadata","inputs":[],"outputs":[{"name":"","type":"string","internalType":"string"}],"stateMutability":"view"},{"type":"function","name":"isActive","inputs":[],"outputs":[{"name":"","type":"bool","internalType":"bool"}],"stateMutability":"view"},{"type":"function","name":"isDefaulted","inputs":[],"outputs":[{"name":"","type":"bool","internalType":"bool"}],"stateMutability":"view"},{"type":"function","name":"loanDuration","inputs":[],"outputs":[{"name":"","type":"uint256","internalType":"uint256"}],"stateMutability":"view"},{"type":"function","name":"markDefault","inputs":[],"outputs":[],"stateMutability":"nonpayable"},{"type":"function","name":"maturityDate","inputs":[],"outputs":[{"name":"","type":"uint256","internalType":"uint256"}],"stateMutability":"view"},{"type":"function","name":"name","inputs":[],"outputs":[{"name":"","type":"string","internalType":"string"}],"stateMutability":"view"},{"type":"function","name":"renounceRole","inputs":[{"name":"role","type":"bytes32","internalType":"bytes32"},{"name":"callerConfirmation","type":"address","internalType":"address"}],"outputs":[],"stateMutability":"nonpayable"},{"type":"function","name":"repay","inputs":[{"name":"amount","type":"uint256","internalType":"uint256"}],"outputs":[],"stateMutability":"nonpayable"},{"type":"function","name":"revokeRole","inputs":[{"name":"role","type":"bytes32","internalType":"bytes32"},{"name":"account","type":"address","internalType":"address"}],"outputs":[],"stateMutability":"nonpayable"},{"type":"function","name":"strategyName","inputs":[],"outputs":[{"name":"","type":"string","internalType":"string"}],"stateMutability":"view"},{"type":"function","name":"supportsInterface","inputs":[{"name":"interfaceId","type":"bytes4","internalType":"bytes4"}],"outputs":[{"name":"","type":"bool","internalType":"bool"}],"stateMutability":"view"},{"type":"function","name":"totalAssets","inputs":[],"outputs":[{"name":"","type":"uint256","internalType":"uint256"}],"stateMutability":"view"},{"type":"function","name":"totalBorrowed","inputs":[],"outputs":[{"name":"","type":"uint256","internalType":"uint256"}],"stateMutability":"view"},{"type":"function","name":"totalPrincipalDeposited","inputs":[],"outputs":[{"name":"","type":"uint256","internalType":"uint256"}],"stateMutability":"view"},{"type":"function","name":"totalRepaid","inputs":[],"outputs":[{"name":"","type":"uint256","internalType":"uint256"}],"stateMutability":"view"},{"type":"function","name":"vault","inputs":[],"outputs":[{"name":"","type":"address","internalType":"address"}],"stateMutability":"view"},{"type":"function","name":"withdraw","inputs":[{"name":"amount","type":"uint256","internalType":"uint256"}],"outputs":[],"stateMutability":"nonpayable"},{"type":"function","name":"yieldRateBps","inputs":[],"outputs":[{"name":"","type":"uint256","internalType":"uint256"}],"stateMutability":"view"},{"type":"event","name":"Borrowed","inputs":[{"name":"issuer","type":"address","indexed":true,"internalType":"address"},{"name":"amount","type":"uint256","indexed":false,"internalType":"uint256"}],"anonymous":false},{"type":"event","name":"Defaulted","inputs":[{"name":"timestamp","type":"uint256","indexed":false,"internalType":"uint256"}],"anonymous":false},{"type":"event","name":"Repaid","inputs":[{"name":"issuer","type":"address","indexed":true,"internalType":"address"},{"name":"amount","type":"uint256","indexed":false,"internalType":"uint256"}],"anonymous":false},{"type":"event","name":"RoleAdminChanged","inputs":[{"name":"role","type":"bytes32","indexed":true,"internalType":"bytes32"},{"name":"previousAdminRole","type":"bytes32","indexed":true,"internalType":"bytes32"},{"name":"newAdminRole","type":"bytes32","indexed":true,"internalType":"bytes32"}],"anonymous":false},{"type":"event","name":"RoleGranted","inputs":[{"name":"role","type":"bytes32","indexed":true,"internalType":"bytes32"},{"name":"account","type":"address","indexed":true,"internalType":"address"},{"name":"sender","type":"address","indexed":true,"internalType":"address"}],"anonymous":false},{"type":"event","name":"RoleRevoked","inputs":[{"name":"role","type":"bytes32","indexed":true,"internalType":"bytes32"},{"name":"account","type":"address","indexed":true,"internalType":"address"},{"name":"sender","type":"address","indexed":true,"internalType":"address"}],"anonymous":false},{"type":"error","name":"AccessControlBadConfirmation","inputs":[]},{"type":"error","name":"AccessControlUnauthorizedAccount","inputs":[{"name":"account","type":"address","internalType":"address"},{"name":"neededRole","type":"bytes32","internalType":"bytes32"}]},{"type":"error","name":"SafeERC20FailedOperation","inputs":[{"name":"token","type":"address","internalType":"address"}]}],"bytecode":{"object":"0x60a060405234801562000010575f80fd5b50604051620014d0380380620014d083398101604081905262000033916200024d565b6001600160a01b03878116608052600180546001600160a01b031916918816919091179055600262000066858262000388565b50600362000075848262000388565b50600482905560058190556200008c5f86620000c7565b50620000b97fa49807205ce4d355092ef5a8a18f56e8913cf4a201fbe287825b095693c2177586620000c7565b505050505050505062000450565b5f828152602081815260408083206001600160a01b038516845290915281205460ff166200016a575f838152602081815260408083206001600160a01b03861684529091529020805460ff19166001179055620001213390565b6001600160a01b0316826001600160a01b0316847f2f8788117e7eff1d82e926ec794901d17c78024a50270940304540a733656f0d60405160405180910390a45060016200016d565b505f5b92915050565b80516001600160a01b03811681146200018a575f80fd5b919050565b634e487b7160e01b5f52604160045260245ffd5b5f82601f830112620001b3575f80fd5b81516001600160401b0380821115620001d057620001d06200018f565b604051601f8301601f19908116603f01168101908282118183101715620001fb57620001fb6200018f565b8160405283815260209250868385880101111562000217575f80fd5b5f91505b838210156200023a57858201830151818301840152908201906200021b565b5f93810190920192909252949350505050565b5f805f805f805f60e0888a03121562000264575f80fd5b6200026f8862000173565b96506200027f6020890162000173565b95506200028f6040890162000173565b60608901519095506001600160401b0380821115620002ac575f80fd5b620002ba8b838c01620001a3565b955060808a0151915080821115620002d0575f80fd5b50620002df8a828b01620001a3565b93505060a0880151915060c0880151905092959891949750929550565b600181811c908216806200031157607f821691505b6020821081036200033057634e487b7160e01b5f52602260045260245ffd5b50919050565b601f82111562000383575f81815260208120601f850160051c810160208610156200035e5750805b601f850160051c820191505b818110156200037f578281556001016200036a565b5050505b505050565b81516001600160401b03811115620003a457620003a46200018f565b620003bc81620003b58454620002fc565b8462000336565b602080601f831160018114620003f2575f8415620003da5750858301515b5f19600386901b1c1916600185901b1785556200037f565b5f85815260208120601f198616915b82811015620004225788860151825594840194600190910190840162000401565b50858210156200044057878501515f19600388901b60f8161c191681555b5050505050600190811b01905550565b60805161102f620004a15f395f8181610217015281816103fa015281816104870152818161062e0152818161074d015281816107e90152818161094f01528181610a180152610b0e015261102f5ff3fe608060405234801561000f575f80fd5b50600436106101bb575f3560e01c80638cff3e4b116100f3578063cf31a68911610093578063e173ad251161006e578063e173ad25146103ab578063f3a6a4a3146103b3578063f5521bf1146103bc578063fbfa77cf146103c5575f80fd5b8063cf31a68914610387578063d547741f1461038f578063d59624b4146103a2575f80fd5b8063a38aaa90116100ce578063a38aaa901461034b578063a72dad0514610358578063b6b55f2514610361578063c5ebeaec14610374575f80fd5b80638cff3e4b1461032957806391d1485414610331578063a217fddf14610344575f80fd5b80632f2ff15d1161015e5780634c19386c116101395780634c19386c146102c957806375b238fc146102d25780638070bb28146102f957806382aefa2414610302575f80fd5b80632f2ff15d1461029057806336568abe146102a3578063371fd8e6146102b6575f80fd5b80631083f761116101995780631083f7611461021257806322f3e2d414610251578063248a9ca3146102595780632e1a7d4d1461027b575f80fd5b806301e1d114146101bf57806301ffc9a7146101da57806306fdde03146101fd575b5f80fd5b6101c76103d8565b6040519081526020015b60405180910390f35b6101ed6101e8366004610ea7565b610532565b60405190151581526020016101d1565b610205610568565b6040516101d19190610ed5565b6102397f000000000000000000000000000000000000000000000000000000000000000081565b6040516001600160a01b0390911681526020016101d1565b6101ed6105f4565b6101c7610267366004610f20565b5f9081526020819052604090206001015490565b61028e610289366004610f20565b610617565b005b61028e61029e366004610f37565b61077a565b61028e6102b1366004610f37565b6107a4565b61028e6102c4366004610f20565b6107dc565b6101c760085481565b6101c77fa49807205ce4d355092ef5a8a18f56e8913cf4a201fbe287825b095693c2177581565b6101c760075481565b6101c77f114e74f6ea3bd819998f78687bfcb11b140da08e9b7d222fa9c1f1ba1f2aa12281565b61028e61085f565b6101ed61033f366004610f37565b6108d3565b6101c75f81565b600a546101ed9060ff1681565b6101c760095481565b61028e61036f366004610f20565b6108fb565b61028e610382366004610f20565b610990565b610205610b6e565b61028e61039d366004610f37565b610b7b565b6101c760065481565b610205610b9f565b6101c760045481565b6101c760055481565b600154610239906001600160a01b031681565b600a545f9060ff1615610470576040516370a0823160e01b81523060048201527f00000000000000000000000000000000000000000000000000000000000000006001600160a01b0316906370a0823190602401602060405180830381865afa158015610447573d5f803e3d5ffd5b505050506040513d601f19601f8201168201806040525081019061046b9190610f70565b905090565b6040516370a0823160e01b81523060048201525f907f00000000000000000000000000000000000000000000000000000000000000006001600160a01b0316906370a0823190602401602060405180830381865afa1580156104d4573d5f803e3d5ffd5b505050506040513d601f19601f820116820180604052508101906104f89190610f70565b90505f6008546009541161050e57600954610512565b6008545b60085461051f9190610f9b565b905061052b8183610fae565b9250505090565b5f6001600160e01b03198216637965db0b60e01b148061056257506301ffc9a760e01b6001600160e01b03198316145b92915050565b6002805461057590610fc1565b80601f01602080910402602001604051908101604052809291908181526020018280546105a190610fc1565b80156105ec5780601f106105c3576101008083540402835291602001916105ec565b820191905f5260205f20905b8154815290600101906020018083116105cf57829003601f168201915b505050505081565b600a545f9060ff1615801561046b5750600654158061046b575050600654421090565b6040516370a0823160e01b81523060048201525f907f00000000000000000000000000000000000000000000000000000000000000006001600160a01b0316906370a0823190602401602060405180830381865afa15801561067b573d5f803e3d5ffd5b505050506040513d601f19601f8201168201806040525081019061069f9190610f70565b9050818110156107125760405162461bcd60e51b815260206004820152603360248201527f496e73756666696369656e74206c69717569642066756e6473202866756e6473604482015272206d6967687420626520626f72726f7765642960681b60648201526084015b60405180910390fd5b8160075410610737578160075f82825461072c9190610f9b565b9091555061073c9050565b5f6007555b600154610776906001600160a01b037f00000000000000000000000000000000000000000000000000000000000000008116911684610c2f565b5050565b5f8281526020819052604090206001015461079481610c64565b61079e8383610c71565b50505050565b6001600160a01b03811633146107cd5760405163334bd91960e11b815260040160405180910390fd5b6107d78282610d00565b505050565b6108116001600160a01b037f000000000000000000000000000000000000000000000000000000000000000016333084610d69565b8060095f8282546108229190610fae565b909155505060405181815233907f0516911bcc3a0a7412a44601057c0a0a1ec628bde049a84284bc4288665344889060200160405180910390a250565b7fa49807205ce4d355092ef5a8a18f56e8913cf4a201fbe287825b095693c2177561088981610c64565b600a805460ff191660011790556040517f1d75e3348506adf1891a585d582e37bfdd45f92284df8a0a8a8f20e428f45c1b906108c89042815260200190565b60405180910390a150565b5f918252602082815260408084206001600160a01b0393909316845291905290205460ff1690565b600a5460ff16156109425760405162461bcd60e51b8152602060048201526011602482015270141bdbdb081a5cc8191959985d5b1d1959607a1b6044820152606401610709565b6109776001600160a01b037f000000000000000000000000000000000000000000000000000000000000000016333084610d69565b8060075f8282546109889190610fae565b909155505050565b7f114e74f6ea3bd819998f78687bfcb11b140da08e9b7d222fa9c1f1ba1f2aa1226109ba81610c64565b600a5460ff1615610a015760405162461bcd60e51b8152602060048201526011602482015270141bdbdb081a5cc8191959985d5b1d1959607a1b6044820152606401610709565b6040516370a0823160e01b815230600482015282907f00000000000000000000000000000000000000000000000000000000000000006001600160a01b0316906370a0823190602401602060405180830381865afa158015610a65573d5f803e3d5ffd5b505050506040513d601f19601f82011682018060405250810190610a899190610f70565b1015610ad05760405162461bcd60e51b8152602060048201526016602482015275496e73756666696369656e74206c697175696469747960501b6044820152606401610709565b6006545f03610aea57600554610ae69042610fae565b6006555b8160085f828254610afb9190610fae565b90915550610b3590506001600160a01b037f0000000000000000000000000000000000000000000000000000000000000000163384610c2f565b60405182815233907fac59582e5396aca512fa873a2047e7f4c80f8f55d4a06cb34a78a0187f62719f9060200160405180910390a25050565b6003805461057590610fc1565b5f82815260208190526040902060010154610b9581610c64565b61079e8383610d00565b606060028054610bae90610fc1565b80601f0160208091040260200160405190810160405280929190818152602001828054610bda90610fc1565b8015610c255780601f10610bfc57610100808354040283529160200191610c25565b820191905f5260205f20905b815481529060010190602001808311610c0857829003601f168201915b5050505050905090565b610c3c8383836001610d9f565b6107d757604051635274afe760e01b81526001600160a01b0384166004820152602401610709565b610c6e8133610e01565b50565b5f610c7c83836108d3565b610cf9575f838152602081815260408083206001600160a01b03861684529091529020805460ff19166001179055610cb13390565b6001600160a01b0316826001600160a01b0316847f2f8788117e7eff1d82e926ec794901d17c78024a50270940304540a733656f0d60405160405180910390a4506001610562565b505f610562565b5f610d0b83836108d3565b15610cf9575f838152602081815260408083206001600160a01b0386168085529252808320805460ff1916905551339286917ff6391f5c32d9c69d2a47ea670b442974b53935d1edc7fd64eb21e047a839171b9190a4506001610562565b610d77848484846001610e3a565b61079e57604051635274afe760e01b81526001600160a01b0385166004820152602401610709565b60405163a9059cbb60e01b5f8181526001600160a01b038616600452602485905291602083604481808b5af1925060015f51148316610df5578383151615610de9573d5f823e3d81fd5b5f873b113d1516831692505b60405250949350505050565b610e0b82826108d3565b6107765760405163e2517d3f60e01b81526001600160a01b038216600482015260248101839052604401610709565b6040516323b872dd60e01b5f8181526001600160a01b038781166004528616602452604485905291602083606481808c5af1925060015f51148316610e96578383151615610e8a573d5f823e3d81fd5b5f883b113d1516831692505b604052505f60605295945050505050565b5f60208284031215610eb7575f80fd5b81356001600160e01b031981168114610ece575f80fd5b9392505050565b5f6020808352835180828501525f5b81811015610f0057858101830151858201604001528201610ee4565b505f604082860101526040601f19601f8301168501019250505092915050565b5f60208284031215610f30575f80fd5b5035919050565b5f8060408385031215610f48575f80fd5b8235915060208301356001600160a01b0381168114610f65575f80fd5b809150509250929050565b5f60208284031215610f80575f80fd5b5051919050565b634e487b7160e01b5f52601160045260245ffd5b8181038181111561056257610562610f87565b8082018082111561056257610562610f87565b600181811c90821680610fd557607f821691505b602082108103610ff357634e487b7160e01b5f52602260045260245ffd5b5091905056fea2646970667358221220135cc2cf87297dc027e341c25af8a25e140291c702a9ce1c82cce47f52c377b764736f6c63430008140033","linkReferences":{}},"methodIdentifiers":{"ADMIN_ROLE()":"75b238fc","DEFAULT_ADMIN_ROLE()":"a217fddf","ISSUER_ROLE()":"82aefa24","assetToken()":"1083f761","borrow(uint256)":"c5ebeaec","deposit(uint256)":"b6b55f25","getRoleAdmin(bytes32)":"248a9ca3","grantRole(bytes32,address)":"2f2ff15d","hasRole(bytes32,address)":"91d14854","ipfsMetadata()":"cf31a689","isActive()":"22f3e2d4","isDefaulted()":"a38aaa90","loanDuration()":"f5521bf1","markDefault()":"8cff3e4b","maturityDate()":"d59624b4","name()":"06fdde03","renounceRole(bytes32,address)":"36568abe","repay(uint256)":"371fd8e6","revokeRole(bytes32,address)":"d547741f","strategyName()":"e173ad25","supportsInterface(bytes4)":"01ffc9a7","totalAssets()":"01e1d114","totalBorrowed()":"4c19386c","totalPrincipalDeposited()":"8070bb28","totalRepaid()":"a72dad05","vault()":"fbfa77cf","withdraw(uint256)":"2e1a7d4d","yieldRateBps()":"f3a6a4a3"},"id":41}