{"abi":[{"type":"constructor","inputs":[{"name":"_vault","type":"address","internalType":"address"},{"name":"_asset","type":"address","internalType":"address"},{"name":"_admin","type":"address","internalType":"address"}],"stateMutability":"nonpayable"},{"type":"function","name":"ADMIN_ROLE","inputs":[],"outputs":[{"name":"","type":"bytes32","internalType":"bytes32"}],"stateMutability":"view"},{"type":"function","name":"DEFAULT_ADMIN_ROLE","inputs":[],"outputs":[{"name":"","type":"bytes32","internalType":"bytes32"}],"stateMutability":"view"},{"type":"function","name":"EXECUTOR_ROLE","inputs":[],"outputs":[{"name":"","type":"bytes32","internalType":"bytes32"}],"stateMutability":"view"},{"type":"function","name":"addStrategy","inputs":[{"name":"_strategy","type":"address","internalType":"address"}],"outputs":[],"stateMutability":"nonpayable"},{"type":"function","name":"assetToken","inputs":[],"outputs":[{"name":"","type":"address","internalType":"contract IERC20"}],"stateMutability":"view"},{"type":"function","name":"getRoleAdmin","inputs":[{"name":"role","type":"bytes32","internalType":"bytes32"}],"outputs":[{"name":"","type":"bytes32","internalType":"bytes32"}],"stateMutability":"view"},{"type":"function","name":"grantRole","inputs":[{"name":"role","type":"bytes32","internalType":"bytes32"},{"name":"account","type":"address","internalType":"address"}],"outputs":[],"stateMutability":"nonpayable"},{"type":"function","name":"hasRole","inputs":[{"name":"role","type":"bytes32","internalType":"bytes32"},{"name":"account","type":"address","internalType":"address"}],"outputs":[{"name":"","type":"bool","internalType":"bool"}],"stateMutability":"view"},{"type":"function","name":"isStrategyWhitelisted","inputs":[{"name":"","type":"address","internalType":"address"}],"outputs":[{"name":"","type":"bool","internalType":"bool"}],"stateMutability":"view"},{"type":"function","name":"rebalance","inputs":[{"name":"_strategies","type":"address[]","internalType":"address[]"},{"name":"_allocations","type":"uint256[]","internalType":"uint256[]"}],"outputs":[],"stateMutability":"nonpayable"},{"type":"function","name":"renounceRole","inputs":[{"name":"role","type":"bytes32","internalType":"bytes32"},{"name":"callerConfirmation","type":"address","internalType":"address"}],"outputs":[],"stateMutability":"nonpayable"},{"type":"function","name":"revokeRole","inputs":[{"name":"role","type":"bytes32","internalType":"bytes32"},{"name":"account","type":"address","internalType":"address"}],"outputs":[],"stateMutability":"nonpayable"},{"type":"function","name":"setStrategyActive","inputs":[{"name":"_index","type":"uint256","internalType":"uint256"},{"name":"_isActive","type":"bool","internalType":"bool"}],"outputs":[],"stateMutability":"nonpayable"},{"type":"function","name":"strategies","inputs":[{"name":"","type":"uint256","internalType":"uint256"}],"outputs":[{"name":"strategyAddress","type":"address","internalType":"address"},{"name":"allocation","type":"uint256","internalType":"uint256"},{"name":"isActive","type":"bool","internalType":"bool"}],"stateMutability":"view"},{"type":"function","name":"supportsInterface","inputs":[{"name":"interfaceId","type":"bytes4","internalType":"bytes4"}],"outputs":[{"name":"","type":"bool","internalType":"bool"}],"stateMutability":"view"},{"type":"function","name":"totalAssets","inputs":[],"outputs":[{"name":"","type":"uint256","internalType":"uint256"}],"stateMutability":"view"},{"type":"function","name":"vault","inputs":[],"outputs":[{"name":"","type":"address","internalType":"contract VaultCore"}],"stateMutability":"view"},{"type":"function","name":"withdraw","inputs":[{"name":"amount","type":"uint256","internalType":"uint256"}],"outputs":[],"stateMutability":"nonpayable"},{"type":"event","name":"Rebalanced","inputs":[{"name":"timestamp","type":"uint256","indexed":false,"internalType":"uint256"}],"anonymous":false},{"type":"event","name":"RoleAdminChanged","inputs":[{"name":"role","type":"bytes32","indexed":true,"internalType":"bytes32"},{"name":"previousAdminRole","type":"bytes32","indexed":true,"internalType":"bytes32"},{"name":"newAdminRole","type":"bytes32","indexed":true,"internalType":"bytes32"}],"anonymous":false},{"type":"event","name":"RoleGranted","inputs":[{"name":"role","type":"bytes32","indexed":true,"internalType":"bytes32"},{"name":"account","type":"address","indexed":true,"internalType":"address"},{"name":"sender","type":"address","indexed":true,"internalType":"address"}],"anonymous":false},{"type":"event","name":"RoleRevoked","inputs":[{"name":"role","type":"bytes32","indexed":true,"internalType":"bytes32"},{"name":"account","type":"address","indexed":true,"internalType":"address"},{"name":"sender","type":"address","indexed":true,"internalType":"address"}],"anonymous":false},{"type":"event","name":"StrategyAdded","inputs":[{"name":"strategy","type":"address","indexed":true,"internalType":"address"}],"anonymous":false},{"type":"event","name":"StrategyRemoved","inputs":[{"name":"strategy","type":"address","indexed":true,"internalType":"address"}],"anonymous":false},{"type":"error","name":"AccessControlBadConfirmation","inputs":[]},{"type":"error","name":"AccessControlUnauthorizedAccount","inputs":[{"name":"account","type":"address","internalType":"address"},{"name":"neededRole","type":"bytes32","internalType":"bytes32"}]},{"type":"error","name":"SafeERC20FailedOperation","inputs":[{"name":"token","type":"address","internalType":"address"}]}],"bytecode":{"object":"0x608060405234801562000010575f80fd5b50604051620015af380380620015af83398101604081905262000033916200016e565b600180546001600160a01b038086166001600160a01b03199283161790925560028054928516929091169190911790556200006f5f82620000a6565b506200009c7fa49807205ce4d355092ef5a8a18f56e8913cf4a201fbe287825b095693c2177582620000a6565b50505050620001b5565b5f828152602081815260408083206001600160a01b038516845290915281205460ff1662000149575f838152602081815260408083206001600160a01b03861684529091529020805460ff19166001179055620001003390565b6001600160a01b0316826001600160a01b0316847f2f8788117e7eff1d82e926ec794901d17c78024a50270940304540a733656f0d60405160405180910390a45060016200014c565b505f5b92915050565b80516001600160a01b038116811462000169575f80fd5b919050565b5f805f6060848603121562000181575f80fd5b6200018c8462000152565b92506200019c6020850162000152565b9150620001ac6040850162000152565b90509250925092565b6113ec80620001c35f395ff3fe608060405234801561000f575f80fd5b5060043610610111575f3560e01c806336568abe1161009e578063a217fddf1161006e578063a217fddf14610271578063d547741f14610278578063d574ea3d1461028b578063e74c0d76146102c5578063fbfa77cf146102d8575f80fd5b806336568abe1461021557806375b238fc1461022857806391d148541461023c578063999ba27c1461024f575f80fd5b8063223e5479116100e4578063223e5479146101a5578063248a9ca3146101ba5780632be01190146101dc5780632e1a7d4d146101ef5780632f2ff15d14610202575f80fd5b806301e1d1141461011557806301ffc9a71461013057806307bd0265146101535780631083f7611461017a575b5f80fd5b61011d6102eb565b6040519081526020015b60405180910390f35b61014361013e36600461113b565b610411565b6040519015158152602001610127565b61011d7fd8aa0f3194971a2a116679f7c2090f6939c8d4e01a2a8d7e41d55e5351469e6381565b60025461018d906001600160a01b031681565b6040516001600160a01b039091168152602001610127565b6101b86101b3366004611184565b610447565b005b61011d6101c836600461119d565b5f9081526020819052604090206001015490565b6101b86101ea3660046111fc565b6105df565b6101b86101fd36600461119d565b6109a0565b6101b8610210366004611263565b610c1f565b6101b8610223366004611263565b610c49565b61011d5f8051602061139783398151915281565b61014361024a366004611263565b610c7c565b61014361025d366004611184565b60046020525f908152604090205460ff1681565b61011d5f81565b6101b8610286366004611263565b610ca4565b61029e61029936600461119d565b610cc8565b604080516001600160a01b0390941684526020840192909252151590820152606001610127565b6101b86102d336600461129a565b610d06565b60015461018d906001600160a01b031681565b6002546040516370a0823160e01b81523060048201525f9182916001600160a01b03909116906370a0823190602401602060405180830381865afa158015610335573d5f803e3d5ffd5b505050506040513d601f19601f8201168201806040525081019061035991906112c8565b90505f5b60035481101561040b576003818154811061037a5761037a6112df565b5f91825260209182902060039091020154604080516278744560e21b815290516001600160a01b03909216926301e1d114926004808401938290030181865afa1580156103c9573d5f803e3d5ffd5b505050506040513d601f19601f820116820180604052508101906103ed91906112c8565b6103f79083611307565b9150806104038161131a565b91505061035d565b50919050565b5f6001600160e01b03198216637965db0b60e01b148061044157506301ffc9a760e01b6001600160e01b03198316145b92915050565b5f8051602061139783398151915261045e81610d98565b6001600160a01b0382165f9081526004602052604090205460ff16156104cb5760405162461bcd60e51b815260206004820152601c60248201527f537472617465677920616c72656164792077686974656c69737465640000000060448201526064015b60405180910390fd5b6001600160a01b038281165f8181526004602090815260408083208054600160ff199182168117909255825160608101845286815293840185815284840183815260038054948501815580885295517fc2575a0e9e593c00f959f8c92f12db2869c3395a3b0502d05e2516446f71f85b9490960293840180546001600160a01b031916969099169590951790975595517fc2575a0e9e593c00f959f8c92f12db2869c3395a3b0502d05e2516446f71f85c82015591517fc2575a0e9e593c00f959f8c92f12db2869c3395a3b0502d05e2516446f71f85d909201805490951691151591909117909355915190917f3f008fd510eae7a9e7bee13513d7b83bef8003d488b5a3d0b0da4de71d6846f191a25050565b7fd8aa0f3194971a2a116679f7c2090f6939c8d4e01a2a8d7e41d55e5351469e6361060981610d98565b83821461064a5760405162461bcd60e51b815260206004820152600f60248201526e098cadccee8d040dad2e6dac2e8c6d608b1b60448201526064016104c2565b5f805b8381101561068d57848482818110610667576106676112df565b90506020020135826106799190611307565b9150806106858161131a565b91505061064d565b506127108111156106e05760405162461bcd60e51b815260206004820152601d60248201527f546f74616c20616c6c6f636174696f6e2065786365656473203130302500000060448201526064016104c2565b6106e8610da5565b600154604080516278744560e21b815290515f926001600160a01b0316916301e1d1149160048083019260209291908290030181865afa15801561072e573d5f803e3d5ffd5b505050506040513d601f19601f8201168201806040525081019061075291906112c8565b90505f5b86811015610963575f888883818110610771576107716112df565b90506020020160208101906107869190611184565b6001600160a01b0381165f9081526004602052604090205490915060ff166107f05760405162461bcd60e51b815260206004820152601860248201527f5374726174656779206e6f742077686974656c6973746564000000000000000060448201526064016104c2565b5f612710888885818110610806576108066112df565b90506020020135856108189190611332565b6108229190611349565b9050801561094e5760015460405163ec8d877760e01b8152600481018390526001600160a01b039091169063ec8d8777906024015f604051808303815f87803b15801561086d575f80fd5b505af115801561087f573d5f803e3d5ffd5b505060025460405163095ea7b360e01b81526001600160a01b03868116600483015260248201869052909116925063095ea7b391506044016020604051808303815f875af11580156108d3573d5f803e3d5ffd5b505050506040513d601f19601f820116820180604052508101906108f79190611368565b5060405163b6b55f2560e01b8152600481018290526001600160a01b0383169063b6b55f25906024015f604051808303815f87803b158015610937575f80fd5b505af1158015610949573d5f803e3d5ffd5b505050505b5050808061095b9061131a565b915050610756565b506040514281527fc306af072396b02bf3a9782c10065cc7ff4aa842934a43f0b76f997b291237c89060200160405180910390a150505050505050565b6109b75f8051602061139783398151915233610c7c565b806109cc57506001546001600160a01b031633145b610a185760405162461bcd60e51b815260206004820152601c60248201527f43616c6c6572206973206e6f742041646d696e206f72205661756c740000000060448201526064016104c2565b5f805b600354811015610c1a5782821015610c1a5760038181548110610a4057610a406112df565b5f91825260209091206002600390920201015460ff1615610c08575f60038281548110610a6f57610a6f6112df565b5f9182526020808320600390920290910154604080516278744560e21b815290516001600160a01b03909216945084926301e1d114926004808401938290030181865afa158015610ac2573d5f803e3d5ffd5b505050506040513d601f19601f82011682018060405250810190610ae691906112c8565b90508015610c05575f610af98587611383565b90505f818311610b095782610b0b565b815b604051632e1a7d4d60e01b8152600481018290529091506001600160a01b03851690632e1a7d4d906024015f604051808303815f87803b158015610b4d575f80fd5b505af1158015610b5f573d5f803e3d5ffd5b50506002546040516370a0823160e01b81523060048201525f93506001600160a01b0390911691506370a0823190602401602060405180830381865afa158015610bab573d5f803e3d5ffd5b505050506040513d601f19601f82011682018060405250810190610bcf91906112c8565b90508015610c0157600154600254610bf4916001600160a01b03918216911683610f6f565b610bfe8188611307565b96505b5050505b50505b80610c128161131a565b915050610a1b565b505050565b5f82815260208190526040902060010154610c3981610d98565b610c438383610fa4565b50505050565b6001600160a01b0381163314610c725760405163334bd91960e11b815260040160405180910390fd5b610c1a8282611033565b5f918252602082815260408084206001600160a01b0393909316845291905290205460ff1690565b5f82815260208190526040902060010154610cbe81610d98565b610c438383611033565b60038181548110610cd7575f80fd5b5f9182526020909120600390910201805460018201546002909201546001600160a01b03909116925060ff1683565b5f80516020611397833981519152610d1d81610d98565b6003548310610d5e5760405162461bcd60e51b815260206004820152600d60248201526c092dcecc2d8d2c840d2dcc8caf609b1b60448201526064016104c2565b8160038481548110610d7257610d726112df565b5f9182526020909120600390910201600201805460ff1916911515919091179055505050565b610da2813361109c565b50565b5f5b600354811015610da25760038181548110610dc457610dc46112df565b5f91825260209091206002600390920201015460ff1615610f5d575f60038281548110610df357610df36112df565b5f9182526020808320600390920290910154604080516278744560e21b815290516001600160a01b03909216945084926301e1d114926004808401938290030181865afa158015610e46573d5f803e3d5ffd5b505050506040513d601f19601f82011682018060405250810190610e6a91906112c8565b90508015610f5a57604051632e1a7d4d60e01b8152600481018290526001600160a01b03831690632e1a7d4d906024015f604051808303815f87803b158015610eb1575f80fd5b505af1158015610ec3573d5f803e3d5ffd5b50506002546040516370a0823160e01b81523060048201525f93506001600160a01b0390911691506370a0823190602401602060405180830381865afa158015610f0f573d5f803e3d5ffd5b505050506040513d601f19601f82011682018060405250810190610f3391906112c8565b90508015610f5857600154600254610f58916001600160a01b03918216911683610f6f565b505b50505b80610f678161131a565b915050610da7565b610f7c83838360016110d9565b610c1a57604051635274afe760e01b81526001600160a01b03841660048201526024016104c2565b5f610faf8383610c7c565b61102c575f838152602081815260408083206001600160a01b03861684529091529020805460ff19166001179055610fe43390565b6001600160a01b0316826001600160a01b0316847f2f8788117e7eff1d82e926ec794901d17c78024a50270940304540a733656f0d60405160405180910390a4506001610441565b505f610441565b5f61103e8383610c7c565b1561102c575f838152602081815260408083206001600160a01b0386168085529252808320805460ff1916905551339286917ff6391f5c32d9c69d2a47ea670b442974b53935d1edc7fd64eb21e047a839171b9190a4506001610441565b6110a68282610c7c565b6110d55760405163e2517d3f60e01b81526001600160a01b0382166004820152602481018390526044016104c2565b5050565b60405163a9059cbb60e01b5f8181526001600160a01b038616600452602485905291602083604481808b5af1925060015f5114831661112f578383151615611123573d5f823e3d81fd5b5f873b113d1516831692505b60405250949350505050565b5f6020828403121561114b575f80fd5b81356001600160e01b031981168114611162575f80fd5b9392505050565b80356001600160a01b038116811461117f575f80fd5b919050565b5f60208284031215611194575f80fd5b61116282611169565b5f602082840312156111ad575f80fd5b5035919050565b5f8083601f8401126111c4575f80fd5b50813567ffffffffffffffff8111156111db575f80fd5b6020830191508360208260051b85010111156111f5575f80fd5b9250929050565b5f805f806040858703121561120f575f80fd5b843567ffffffffffffffff80821115611226575f80fd5b611232888389016111b4565b9096509450602087013591508082111561124a575f80fd5b50611257878288016111b4565b95989497509550505050565b5f8060408385031215611274575f80fd5b8235915061128460208401611169565b90509250929050565b8015158114610da2575f80fd5b5f80604083850312156112ab575f80fd5b8235915060208301356112bd8161128d565b809150509250929050565b5f602082840312156112d8575f80fd5b5051919050565b634e487b7160e01b5f52603260045260245ffd5b634e487b7160e01b5f52601160045260245ffd5b80820180821115610441576104416112f3565b5f6001820161132b5761132b6112f3565b5060010190565b8082028115828204841417610441576104416112f3565b5f8261136357634e487b7160e01b5f52601260045260245ffd5b500490565b5f60208284031215611378575f80fd5b81516111628161128d565b81810381811115610441576104416112f356fea49807205ce4d355092ef5a8a18f56e8913cf4a201fbe287825b095693c21775a26469706673582212202a6489d263d5e1e712c0b20905b27761667c624b68468ce144f987cadf61326d64736f6c63430008140033","linkReferences":{}},"methodIdentifiers":{"ADMIN_ROLE()":"75b238fc","DEFAULT_ADMIN_ROLE()":"a217fddf","EXECUTOR_ROLE()":"07bd0265","addStrategy(address)":"223e5479","assetToken()":"1083f761","getRoleAdmin(bytes32)":"248a9ca3","grantRole(bytes32,address)":"2f2ff15d","hasRole(bytes32,address)":"91d14854","isStrategyWhitelisted(address)":"999ba27c","rebalance(address[],uint256[])":"2be01190","renounceRole(bytes32,address)":"36568abe","revokeRole(bytes32,address)":"d547741f","setStrategyActive(uint256,bool)":"e74c0d76","strategies(uint256)":"d574ea3d","supportsInterface(bytes4)":"01ffc9a7","totalAssets()":"01e1d114","vault()":"fbfa77cf","withdraw(uint256)":"2e1a7d4d"},"id":34}