{"abi":[{"type":"constructor","inputs":[{"name":"_asset","type":"address","internalType":"address"},{"name":"_vault","type":"address","internalType":"address"}],"stateMutability":"nonpayable"},{"type":"function","name":"assetToken","inputs":[],"outputs":[{"name":"","type":"address","internalType":"contract IERC20"}],"stateMutability":"view"},{"type":"function","name":"deposit","inputs":[{"name":"amount","type":"uint256","internalType":"uint256"}],"outputs":[],"stateMutability":"nonpayable"},{"type":"function","name":"isActive","inputs":[],"outputs":[{"name":"","type":"bool","internalType":"bool"}],"stateMutability":"pure"},{"type":"function","name":"strategyName","inputs":[],"outputs":[{"name":"","type":"string","internalType":"string"}],"stateMutability":"pure"},{"type":"function","name":"totalAssets","inputs":[],"outputs":[{"name":"","type":"uint256","internalType":"uint256"}],"stateMutability":"view"},{"type":"function","name":"totalDeposited","inputs":[],"outputs":[{"name":"","type":"uint256","internalType":"uint256"}],"stateMutability":"view"},{"type":"function","name":"vault","inputs":[],"outputs":[{"name":"","type":"address","internalType":"address"}],"stateMutability":"view"},{"type":"function","name":"withdraw","inputs":[{"name":"amount","type":"uint256","internalType":"uint256"}],"outputs":[],"stateMutability":"nonpayable"},{"type":"error","name":"SafeERC20FailedOperation","inputs":[{"name":"token","type":"address","internalType":"address"}]}],"bytecode":{"object":"0x608060405234801561000f575f80fd5b506040516104dc3803806104dc83398101604081905261002e91610079565b5f80546001600160a01b039384166001600160a01b031991821617909155600180549290931691161790556100aa565b80516001600160a01b0381168114610074575f80fd5b919050565b5f806040838503121561008a575f80fd5b6100938361005e565b91506100a16020840161005e565b90509250929050565b610425806100b75f395ff3fe608060405234801561000f575f80fd5b5060043610610085575f3560e01c8063b6b55f2511610058578063b6b55f25146100ee578063e173ad2514610101578063fbfa77cf14610130578063ff50abdc14610143575f80fd5b806301e1d114146100895780631083f761146100a057806322f3e2d4146100ca5780632e1a7d4d146100d9575b5f80fd5b6002545b6040519081526020015b60405180910390f35b5f546100b2906001600160a01b031681565b6040516001600160a01b039091168152602001610097565b60405160018152602001610097565b6100ec6100e736600461034d565b61014c565b005b6100ec6100fc36600461034d565b6101d8565b604080518082018252600d81526c135bd8dac81495d048141bdbdb609a1b602082015290516100979190610364565b6001546100b2906001600160a01b031681565b61008d60025481565b8060025410156101a35760405162461bcd60e51b815260206004820152601e60248201527f496e73756666696369656e742066756e647320696e2052574120506f6f6c000060448201526064015b60405180910390fd5b8060025f8282546101b491906103c3565b90915550506001545f546101d5916001600160a01b03918216911683610208565b50565b5f546101ef906001600160a01b0316333084610242565b8060025f82825461020091906103dc565b909155505050565b610215838383600161027e565b61023d57604051635274afe760e01b81526001600160a01b038416600482015260240161019a565b505050565b6102508484848460016102e0565b61027857604051635274afe760e01b81526001600160a01b038516600482015260240161019a565b50505050565b60405163a9059cbb60e01b5f8181526001600160a01b038616600452602485905291602083604481808b5af1925060015f511483166102d45783831516156102c8573d5f823e3d81fd5b5f873b113d1516831692505b60405250949350505050565b6040516323b872dd60e01b5f8181526001600160a01b038781166004528616602452604485905291602083606481808c5af1925060015f5114831661033c578383151615610330573d5f823e3d81fd5b5f883b113d1516831692505b604052505f60605295945050505050565b5f6020828403121561035d575f80fd5b5035919050565b5f6020808352835180828501525f5b8181101561038f57858101830151858201604001528201610373565b505f604082860101526040601f19601f8301168501019250505092915050565b634e487b7160e01b5f52601160045260245ffd5b818103818111156103d6576103d66103af565b92915050565b808201808211156103d6576103d66103af56fea26469706673582212205c96ff106e2ce2ea81cc3cfae80d4aeaa525a007c356acebb46b43cfa8ff23e664736f6c63430008140033","linkReferences":{}},"methodIdentifiers":{"assetToken()":"1083f761","deposit(uint256)":"b6b55f25","isActive()":"22f3e2d4","strategyName()":"e173ad25","totalAssets()":"01e1d114","totalDeposited()":"ff50abdc","vault()":"fbfa77cf","withdraw(uint256)":"2e1a7d4d"},"id":25}