{"abi":[{"type":"constructor","inputs":[],"stateMutability":"nonpayable"},{"type":"function","name":"owner","inputs":[],"outputs":[{"name":"","type":"address","internalType":"address"}],"stateMutability":"view"},{"type":"function","name":"pause","inputs":[],"outputs":[],"stateMutability":"nonpayable"},{"type":"function","name":"paused","inputs":[],"outputs":[{"name":"","type":"bool","internalType":"bool"}],"stateMutability":"view"},{"type":"function","name":"unpause","inputs":[],"outputs":[],"stateMutability":"nonpayable"},{"type":"event","name":"Paused","inputs":[{"name":"account","type":"address","indexed":true,"internalType":"address"}],"anonymous":false},{"type":"event","name":"Unpaused","inputs":[{"name":"account","type":"address","indexed":true,"internalType":"address"}],"anonymous":false}],"bytecode":{"object":"0x608060405234801561000f575f80fd5b505f805460ff60a01b1933166001600160a81b03199091161790556102a2806100375f395ff3fe608060405234801561000f575f80fd5b506004361061004a575f3560e01c80633f4ba83a1461004e5780635c975abb146100585780638456cb59146100805780638da5cb5b14610088575b5f80fd5b6100566100b2565b005b5f5461006b90600160a01b900460ff1681565b60405190151581526020015b60405180910390f35b610056610190565b5f5461009a906001600160a01b031681565b6040516001600160a01b039091168152602001610077565b5f546001600160a01b031633146101095760405162461bcd60e51b81526020600482015260166024820152752737ba103a34329031b7b73a3930b1ba1037bbb732b960511b60448201526064015b60405180910390fd5b5f54600160a01b900460ff1661015a5760405162461bcd60e51b815260206004820152601660248201527510dbdb9d1c9858dd081a5cc81b9bdd081c185d5cd95960521b6044820152606401610100565b5f805460ff60a01b1916815560405133917f5db9ee0a495bf2e6ff9c91a7834c1ba4fdd244a5e8aa4e537bd38aeae4b073aa91a2565b5f546001600160a01b031633146101e25760405162461bcd60e51b81526020600482015260166024820152752737ba103a34329031b7b73a3930b1ba1037bbb732b960511b6044820152606401610100565b5f54600160a01b900460ff16156102305760405162461bcd60e51b815260206004820152601260248201527110dbdb9d1c9858dd081a5cc81c185d5cd95960721b6044820152606401610100565b5f805460ff60a01b1916600160a01b17815560405133917f62e78cea01bee320cd4e420270b5ea74000d11b0c9f74754ebdbfc544b05a25891a256fea26469706673582212204cfce2dc11511bc43754f1b88fc6f9a5c71e60d3d159d5772ce59f2ddfa46f7064736f6c63430008140033","linkReferences":{}},"methodIdentifiers":{"owner()":"8da5cb5b","pause()":"8456cb59","paused()":"5c975abb","unpause()":"3f4ba83a"},"id":23}