{"abi":[{"type":"constructor","inputs":[{"name":"_strategyManager","type":"address","internalType":"address"},{"name":"_aiAgent","type":"address","internalType":"address"}],"stateMutability":"nonpayable"},{"type":"function","name":"aiAgent","inputs":[],"outputs":[{"name":"","type":"address","internalType":"address"}],"stateMutability":"view"},{"type":"function","name":"owner","inputs":[],"outputs":[{"name":"","type":"address","internalType":"address"}],"stateMutability":"view"},{"type":"function","name":"rebalance","inputs":[{"name":"strategies","type":"address[]","internalType":"address[]"},{"name":"allocations","type":"uint256[]","internalType":"uint256[]"}],"outputs":[],"stateMutability":"nonpayable"},{"type":"function","name":"renounceOwnership","inputs":[],"outputs":[],"stateMutability":"nonpayable"},{"type":"function","name":"setAIAgent","inputs":[{"name":"_aiAgent","type":"address","internalType":"address"}],"outputs":[],"stateMutability":"nonpayable"},{"type":"function","name":"setStrategyManager","inputs":[{"name":"_strategyManager","type":"address","internalType":"address"}],"outputs":[],"stateMutability":"nonpayable"},{"type":"function","name":"strategyManager","inputs":[],"outputs":[{"name":"","type":"address","internalType":"address"}],"stateMutability":"view"},{"type":"function","name":"transferOwnership","inputs":[{"name":"newOwner","type":"address","internalType":"address"}],"outputs":[],"stateMutability":"nonpayable"},{"type":"event","name":"AIAgentUpdated","inputs":[{"name":"newAgent","type":"address","indexed":true,"internalType":"address"}],"anonymous":false},{"type":"event","name":"OwnershipTransferred","inputs":[{"name":"previousOwner","type":"address","indexed":true,"internalType":"address"},{"name":"newOwner","type":"address","indexed":true,"internalType":"address"}],"anonymous":false},{"type":"event","name":"Rebalanced","inputs":[{"name":"timestamp","type":"uint256","indexed":false,"internalType":"uint256"},{"name":"reason","type":"string","indexed":false,"internalType":"string"}],"anonymous":false},{"type":"error","name":"OwnableInvalidOwner","inputs":[{"name":"owner","type":"address","internalType":"address"}]},{"type":"error","name":"OwnableUnauthorizedAccount","inputs":[{"name":"account","type":"address","internalType":"address"}]}],"bytecode":{"object":"0x608060405234801561000f575f80fd5b506040516106ce3803806106ce83398101604081905261002e916100f8565b338061005357604051631e4fbdf760e01b81525f600482015260240160405180910390fd5b61005c8161008e565b50600180546001600160a01b039384166001600160a01b03199182161790915560028054929093169116179055610129565b5f80546001600160a01b038381166001600160a01b0319831681178455604051919092169283917f8be0079c531659141344cd1fd0a4f28419497f9722a3daafe3b4186f6b6457e09190a35050565b80516001600160a01b03811681146100f3575f80fd5b919050565b5f8060408385031215610109575f80fd5b610112836100dd565b9150610120602084016100dd565b90509250929050565b610598806101365f395ff3fe608060405234801561000f575f80fd5b5060043610610085575f3560e01c8063715018a611610058578063715018a6146100f35780638da5cb5b146100fb578063a6d5b7321461010b578063f2fde38b1461011e575f80fd5b80632be011901461008957806339b70e381461009e5780635c966646146100cd5780636ebe941b146100e0575b5f80fd5b61009c610097366004610446565b610131565b005b6001546100b1906001600160a01b031681565b6040516001600160a01b03909116815260200160405180910390f35b61009c6100db3660046104c8565b6102b8565b61009c6100ee3660046104c8565b6102e2565b61009c610333565b5f546001600160a01b03166100b1565b6002546100b1906001600160a01b031681565b61009c61012c3660046104c8565b610346565b6002546001600160a01b031633146101905760405162461bcd60e51b815260206004820152601a60248201527f43616c6c6572206973206e6f7420746865204149204167656e7400000000000060448201526064015b60405180910390fd5b6001546001600160a01b03166101e85760405162461bcd60e51b815260206004820152601760248201527f53747261746567794d616e61676572206e6f74207365740000000000000000006044820152606401610187565b6001546040516302be011960e41b81526001600160a01b0390911690632be011909061021e9087908790879087906004016104e8565b5f604051808303815f87803b158015610235575f80fd5b505af1158015610247573d5f803e3d5ffd5b505050507f9bc3e4f42f463d4d0069791102a6d57e9cdceba5641e80b02f14923b901c8ed6426040516102aa91815260406020820181905260169082015275105248149958985b185b98d948151c9a59d9d95c995960521b606082015260800190565b60405180910390a150505050565b6102c0610383565b600180546001600160a01b0319166001600160a01b0392909216919091179055565b6102ea610383565b600280546001600160a01b0319166001600160a01b0383169081179091556040517f91fb2ab6ae2c97b27c8675b15c080c2a5c59357a2795737c9590bdefa0539ffd905f90a250565b61033b610383565b6103445f6103af565b565b61034e610383565b6001600160a01b03811661037757604051631e4fbdf760e01b81525f6004820152602401610187565b610380816103af565b50565b5f546001600160a01b031633146103445760405163118cdaa760e01b8152336004820152602401610187565b5f80546001600160a01b038381166001600160a01b0319831681178455604051919092169283917f8be0079c531659141344cd1fd0a4f28419497f9722a3daafe3b4186f6b6457e09190a35050565b5f8083601f84011261040e575f80fd5b50813567ffffffffffffffff811115610425575f80fd5b6020830191508360208260051b850101111561043f575f80fd5b9250929050565b5f805f8060408587031215610459575f80fd5b843567ffffffffffffffff80821115610470575f80fd5b61047c888389016103fe565b90965094506020870135915080821115610494575f80fd5b506104a1878288016103fe565b95989497509550505050565b80356001600160a01b03811681146104c3575f80fd5b919050565b5f602082840312156104d8575f80fd5b6104e1826104ad565b9392505050565b604080825281018490525f8560608301825b87811015610528576001600160a01b03610513846104ad565b168252602092830192909101906001016104fa565b5083810360208501528481526001600160fb1b03851115610547575f80fd5b8460051b91508186602083013701602001969550505050505056fea2646970667358221220fbb0807336c8258a11612a1a720f7c5d6305736b8b6c542e72bfe9ab3236731564736f6c63430008140033","linkReferences":{}},"methodIdentifiers":{"aiAgent()":"a6d5b732","owner()":"8da5cb5b","rebalance(address[],uint256[])":"2be01190","renounceOwnership()":"715018a6","setAIAgent(address)":"6ebe941b","setStrategyManager(address)":"5c966646","strategyManager()":"39b70e38","transferOwnership(address)":"f2fde38b"},"id":33}